:1000000012C02CC02BC02AC029C028C027C026C0BF
:1000100025C024C023C022C021C020C01FC01EC0D4
:100020001DC01CC01BC011241FBECFE5D4E0DEBF25
:10003000CDBF10E0A0E6B0E0E0E6F8E002C0059039
:100040000D92AC38B107D9F710E0ACE8B0E001C0D0
:100050001D92A839B107E1F702D000C4D1CFCF93E8
:10006000DF931FD178D280938F00C0E9D0E081E088
:1000700060E070E0CCD28C2F6DE870E04EE850E08C
:100080002CE830E030D38823E9F460E0FAD080E651
:1000900090E058D080918D00882319F089E690E097
:1000A00002C08BE690E04ED080918E0090E080D030
:1000B0008DE690E047D080918C0090E079D08FE67B
:1000C00090E005C080E069E0DCD083E790E03AD0C2
:1000D000CECF8B9A8A9A899A889A089580FF02C017
:1000E000909A01C0909881FF02C0919A01C09198A6
:1000F00082FF02C0929A01C0929883FF02C0939A35
:100100000895939808951F93182FE3DF969A812FEF
:1001100082958F70E3DF9698969A812FDFDF96980D
:1001200088E28A95F1F71F9108959498ECDF08957D
:10013000949AE9DF0895982F9058983008F48770C2
:10014000F7DF0895CF93DF93EC0106C0982F905806
:10015000983008F48770ECDF89918823B9F7DF9134
:10016000CF910895CF93DF93EC0107C08E2F805875
:10017000883008F4E7708E2FDBDFFE012196E491D2
:10018000EE23A1F7DF91CF910895CF93DF93EC0198
:10019000219638D3982F91509E3F38F49F5798302E
:1001A00008F48770C5DFCE01F2CFDF91CF910895BB
:1001B000DF93CF93CDB7DEB761970FB6F894DEBF6C
:1001C0000FBECDBFBE016F5F7F4F4AE050E0FBD254
:1001D000B9DF61960FB6F894DEBF0FBECDBFCF91E9
:1001E000DF9108951F93CF93DF93EB0190E0877029
:1001F00090700896880F880F880F97DF18E0899114
:1002000097DF1150E1F7DF91CF911F9108950F9380
:100210001F93CF93DF938B0190E0877090700896C7
:10022000880F880F880F81DFC0E0D0E0F801EC0F65
:10023000FD1F84917DDF2196C830D105B9F7DF918C
:10024000CF911F910F9108950F931F93CF93DF9339
:100250008B0190E0877090700896880F880F880F48
:1002600064DFC0E0D0E0C8018C0F9D1FCBD260DFFF
:100270002196C830D105B9F7DF91CF911F910F9129
:100280000895813009F480E46058860F4EDF0895A8
:1002900081E04BDF88EC94E00197F1F700C00000AB
:1002A000089517DF8C9A8E9A9498969885EA9EE026
:1002B0000197F1F700C000009498959880E30EDF55
:1002C00080E094E00197F1F700C0000080E306DFD2
:1002D00091E29A95F1F7000080E200DF81E28A95D1
:1002E000F1F7000088E221DF88E01FDF8CE01DDFEE
:1002F00086E01BDFCDDF089580B380780895979A5C
:100300008F9A089597988F98089597988F9A80EA72
:100310008A95F1F79FB7F8948F9886E18A95F1F75F
:1003200080B39FBF9AE89A95F1F7879B02C08078C7
:10033000089581E00895982F2FB7F8948F9A0000C0
:1003400081118F9885E08A95F1F780B3880F880B2B
:1003500089239FE09A95F1F78F982FBF08950F9307
:100360001F93182F08E0812F8170E5DF169581110A
:1003700010680150C1F7812F1F910F9108958FEFE1
:10038000EEDF0895DF92EF92FF920F931F93CF93CA
:10039000DF93182FEB01B9DF882369F580EFDFDFEA
:1003A000EE2400E498EFD92ED00E81E0C4DFF82EC1
:1003B00081E0C1DF882319F0FF2069F01FC0FF2012
:1003C00051F4011728F0888180FF05C0101719F03B
:1003D000E02EFF24F3948F2DAEDF888186958883ED
:1003E000FF2011F08068888301500D15F1F600237D
:1003F00039F02196D7CFEE24EA9402C08EEFE82E92
:100400008E2DDF91CF911F910F91FF90EF90DF9094
:1004100008950F931F93CF93DF93182FEB0175DF90
:10042000209741F085E59BDF08E0899198DF015036
:10043000E1F702C08CEC93DF812F91DFDF91CF9148
:100440001F910F910895EF92FF920F931F93DF93E7
:10045000CF93CDB7DEB760970FB6F894DEBF0FBE6F
:10046000CDBFFB017A01BE016F5F7F4F4BE750E0CC
:1004700090E1DA010D90AD01DB010D92BD019150CB
:10048000C1F7408150E0718160E0462B572B8031ED
:1004900071F4BA016E7FA3E0660F771FAA95E1F7AA
:1004A00096814CE050E0491B5109460F571F57FFFA
:1004B00007C091E0D7019C93509541955F4F02C0D2
:1004C000D7011C92883289F4848190E0BC01607667
:1004D00070706036710549F086FF02C04E7F05C01E
:1004E00085FF02C04C7F01C0487FCA0154E0969549
:1004F00087955A95E1F7F90180834F70FE01E40F6B
:10050000F11D8181D8018C9380E060960FB6F8943C
:10051000DEBF0FBECDBFCF91DF911F910F91FF9036
:10052000EF9008950F931F93CF93DF938C01EB010E
:10053000F8018081BE0126DFF801808381508D3F64
:1005400028F48881883211F0803191F7DF91CF91C2
:100550001F910F910895CF92DF92EF92FF920F9328
:100560001F93DF93CF93CDB7DEB72A970FB6F894DA
:10057000DEBF0FBECDBF8FEF898320E08E010E5FFF
:100580001F4F7E010894E11CF11CBAE0CB2ED12C48
:10059000CC0EDD1E13C0C701B8012A87C3DF8981D5
:1005A0002A858F3F81F08E3F71F0F801A0E9B0E01D
:1005B00081918D93EC15FD05D9F721E08981882380
:1005C00011F0222341F3822F2A960FB6F894DEBF52
:1005D0000FBECDBFCF91DF911F910F91FF90EF9094
:1005E000DF90CF9008951F93CF93DF93EC018DDEC2
:1005F00084EBBE010EDF81E09EDE182F86DE81E0F7
:10060000112309F480E0DF91CF911F9108951F938A
:10061000CF93DF93182FEB0178DE6EDE882339F05D
:1006200084E4BE01F6DE113021F069DE02C082E012
:1006300001C080E0DF91CF911F9108956F927F926A
:100640008F929F92AF92BF92CF92DF92EF92FF92E2
:100650000F931F93DF93CF93CDB7DEB729970FB6D4
:10066000F894DEBF0FBECDBF7C014B013A015901AA
:100670004CDE8EEBB701CDDE8E010F5F1F4F8AE09F
:10068000C82ED12CCC0EDD1E7ADEF80181938F01AD
:10069000EC15FD05C9F78E010F5F1F4FC80169E01A
:1006A00070E073D0882349F4F7018081B801A40178
:1006B00093018501C8DE80E001C083E029960FB672
:1006C000F894DEBF0FBECDBFCF91DF911F910F9188
:1006D000FF90EF90DF90CF90BF90AF909F908F9062
:1006E0007F906F9008957F928F929F92AF92BF926A
:1006F000CF92DF92EF92FF920F931F93DF93CF93EE
:10070000CDB7DEB729970FB6F894DEBF0FBECDBFC9
:10071000782E5B014A0179018EEB60E070E079DEB2
:100720008E010F5F1F4F9AE0C92ED12CCC0EDD1E1B
:1007300026DEF80181938F01EC15FD05C9F78E01C6
:100740000F5F1F4FC80169E070E01FD0882341F49C
:10075000872DB801A5019401870175DE80E001C0F5
:1007600083E029960FB6F894DEBF0FBECDBFCF91C0
:10077000DF911F910F91FF90EF90DF90CF90BF908E
:10078000AF909F908F907F900895282F392FF90177
:1007900020E030E080E0A8E112C0419198E0542FC1
:1007A0005827B52FB17050FD8A278695B13009F4CE
:1007B0008068915011F04695F2CF2F5F3F4F26177A
:1007C000370759F70895FB019F01E8944230BCF0C8
:1007D0004532ACF44A3029F497FB1EF4909581958C
:1007E0009F4F642F772726D0805D8A330CF0895D78
:1007F0008193CB010097A9F716F45DE25193108223
:10080000C90108C0E199FECF9FBB8EBBE09A992732
:100810008DB30895DC01FC01672F71917723E1F717
:10082000329704C07C916D9370836291AE17BF07BD
:10083000C8F30895AA1BBB1B51E107C0AA1FBB1F29
:10084000A617B70710F0A61BB70B881F991F5A955C
:10085000A9F780959095BC01CD010895F894FFCF3C
:1008600054656D70207A6577002D0020002E0020E1
:10087000432000206572726F7220000001010202A5
:0C08800003040405060607070809090028
:00000001FF
